{
  "_format": "hh-sol-artifact-1",
  "contractName": "gasChallenge",
  "sourceName": "contracts/gasChallenge.sol",
  "abi": [
    {
      "inputs": [],
      "stateMutability": "nonpayable",
      "type": "constructor"
    },
    {
      "inputs": [],
      "name": "getSumOfArray",
      "outputs": [
        {
          "internalType": "uint256",
          "name": "",
          "type": "uint256"
        }
      ],
      "stateMutability": "view",
      "type": "function"
    },
    {
      "inputs": [],
      "name": "isSumOfArrayZero",
      "outputs": [
        {
          "internalType": "bool",
          "name": "",
          "type": "bool"
        }
      ],
      "stateMutability": "view",
      "type": "function"
    },
    {
      "inputs": [],
      "name": "notOptimizedFunction",
      "outputs": [],
      "stateMutability": "nonpayable",
      "type": "function"
    },
    {
      "inputs": [],
      "name": "optimizedFunction",
      "outputs": [],
      "stateMutability": "nonpayable",
      "type": "function"
    }
  ],
  "bytecode": "0x6080604052604051806101400160405280600160ff168152602001600260ff168152602001600360ff168152602001600460ff168152602001600560ff168152602001600660ff168152602001600760ff168152602001600860ff168152602001600960ff168152602001600a60ff16815250600090600a6100829291906100fa565b5034801561008f57600080fd5b5061009e6100a960201b60201c565b600a81905550610240565b6000806000905060005b600a8110156100f257600081600a81106100d0576100cf61015c565b5b0154826100dd91906101c4565b915080806100ea906101f8565b9150506100b3565b508091505090565b82600a810192821561012e579160200282015b8281111561012d578251829060ff1690559160200191906001019061010d565b5b50905061013b919061013f565b5090565b5b80821115610158576000816000905550600101610140565b5090565b7f4e487b7100000000000000000000000000000000000000000000000000000000600052603260045260246000fd5b6000819050919050565b7f4e487b7100000000000000000000000000000000000000000000000000000000600052601160045260246000fd5b60006101cf8261018b565b91506101da8361018b565b92508282019050808211156101f2576101f1610195565b5b92915050565b60006102038261018b565b91507fffffffffffffffffffffffffffffffffffffffffffffffffffffffffffffffff820361023557610234610195565b5b600182019050919050565b6102ed8061024f6000396000f3fe608060405234801561001057600080fd5b506004361061004c5760003560e01c806368b5f223146100515780637ce418941461005b57806380d2c80314610065578063a236a8c614610083575b600080fd5b6100596100a1565b005b6100636100d7565b005b61006d610111565b60405161007a919061018c565b60405180910390f35b61008b610162565b60405161009891906101c2565b60405180910390f35b60005b600a8110156100d45760008082600a81106100c2576100c16101dd565b5b018190555080806001019150506100a4565b50565b60005b600a81101561010e5760008082600a81106100f8576100f76101dd565b5b0181905550806101079061023b565b90506100da565b50565b6000806000905060005b600a81101561015a57600081600a8110610138576101376101dd565b5b0154826101459190610283565b915080806101529061023b565b91505061011b565b508091505090565b60008061016d610111565b14905090565b6000819050919050565b61018681610173565b82525050565b60006020820190506101a1600083018461017d565b92915050565b60008115159050919050565b6101bc816101a7565b82525050565b60006020820190506101d760008301846101b3565b92915050565b7f4e487b7100000000000000000000000000000000000000000000000000000000600052603260045260246000fd5b7f4e487b7100000000000000000000000000000000000000000000000000000000600052601160045260246000fd5b600061024682610173565b91507fffffffffffffffffffffffffffffffffffffffffffffffffffffffffffffffff82036102785761027761020c565b5b600182019050919050565b600061028e82610173565b915061029983610173565b92508282019050808211156102b1576102b061020c565b5b9291505056fea26469706673582212209368769495bbbe567f406efa41eb77141d0440459f235c47e03d03af53fc9d7664736f6c63430008120033",
  "linkReferences": {},
  "deployedLinkReferences": {}
}